S0100000436C6F636B5F46572E737265632C
S113000012C029C22BC02AC029C028C027C026C0BC
S113001025C048C223C022C0B1C220C01FC01EC018
S11300201DC01CC01BC011241FBECFE5D4E0DEBF21
S1130030CDBF10E0A0E6B0E0E8EFFBE002C0059021
S11300400D92A03BB107D9F721E0A0EBB0E001C0CD
S11300501D92A930B207E1F727D1CCC5D1CF9DECD1
S1130060899F912D1124969596959695392F330F46
S1130070232F220F220F230F821B20E1929F800D3A
S113008011240895982F92959F70990F292F220F6C
S1130090220F920F8F70890F089521E030E06330B2
S11300A0710510F020E030E0FA01E21BF30B9F0130
S11300B0FB01EC59FF4F4081B901640F711DAB0185
S11300C0480F591FF901F695E795F695E7954E0FF8
S11300D05F1F329522952F7023273F702327AEE3AD
S11300E0BAE0A4D2480F591F9F01ABE7B4E19ED2F6
S11300F096958795481B590B9A01A3E9B4E296D2C9
S1130100281B390B36952795820F931F9695879553
S1130110969587959C01220F331F220F331F220FC0
S1130120331FF901E81BF90BCF01F42FF81B8F2FB4
S113013009F487E00895CF93DF9380EDF1D1811125
S113014022C08EE003D217D281EDEAD181110DC015
S11301500BD2CAEDD0E088830ED28881837E888357
S113016080EDDED181110CC003C005D281E00CC04A
S11301708EE0ECD18091DA00E9D1FDD180E004C0B9
S1130180FAD181E001C081E0DF91CF910895DF923F
S1130190EF92FF920F931F93CF93DF93D82E862F66
S11301A0E42EF22ECAEDD0E0188259DF89838D2D1A
S11301B056DF8A836F2D70E0402F512F8E2D90E0F3
S11301C06CDF4DDF8B838E2D4ADF8C838F2D47DFD1
S11301D08D8380E3800F43DF8E8380EDA1D1811175
S11301E00BC0B4D101EE10E08991B0D1C017D10792
S11301F0D9F7C1D180E002C0BED181E0DF91CF91B7
S11302001F910F91FF90EF90DF900895EF92FF926E
S11302100F931F93CF93DF938C0180ED81D18111D4
S113022007C094D1A8D181ED7BD1882321F033C0BC
S1130230A2D181E032C0CAEDD0E00F2EF0EEEF2E55
S1130240F0E0FF2EF02D89D18993EC16FD06D9F745
S11302508BD1CAEDD0E08E838ED1888113DFF80173
S1130260808389810FDFF80181838A810BDFF801A4
S113027082838B8107DFF80183838C8103DFF8019C
S113028084838D81FFDEF80185838E81FBDEF80196
S1130290868380E002C06FD181E0DF91CF911F910E
S11302A00F91FF90EF90089584B3806384BB81B372
S11302B0836081BB8A9881B38F7081BB82B3806F66
S11302C082BB85B7826085BF85B78E7F85BF8BB7BC
S11302D080648BBF83B7846083BF83B78C7F83BF05
S11302E089B7816089BF83E390E06DD113D178949D
S11302F081E790E08DD12FEF89E698E1215080408D
S11303009040E1F700C0000016DF04EE17E02AE099
S113031045E06AE387E13BDF81E0809364000F2ED0
S1130320F1E0EF2EF1E0FF2EF02D0F2EFBE7AF2EC4
S1130330F0E0BF2EF02D0F2EF2EECF2EF0E0DF2EE8
S1130340F02DC2EBD0E07C2C8D2C992493948091D9
S1130350640081112EC0F701608151814281338193
S11303602681958184811F926F931F925F931F92C0
S11303704F931F923F931F922F931F929F931F920D
S11303808F93BF92AF92DF92CF925CD1872D982D3D
S11303903FD18FE39CE90197F1F700C000009092F0
S11303A06400EDB7FEB772960FB6F894FEBF0FBEA9
S11303B0EDBF8A81833358F28BB78F7B8BBF82E981
S11303C090E026D18FE19EE40197F1F700C0000090
S11303D024C088818B3078F08091B1008150809363
S11303E0B1008CE990E014D1EFE1FEE43197F1F72C
S11303F000C00000188289818B3078F08091B100B0
S11304008F5F8093B10083EA90E002D18FE19EE494
S11304100197F1F700C0000019828B818233C8F282
S113042088EA90E0F5D0EFE1FEE43197F1F700C0FF
S113043000000091600010916100209162004091E1
S113044063006091B0008091B100A1DE8BB780643D
S11304508BBF1A827CCF1F920F920FB60F9211247A
S11304602F933F934F935F936F937F938F939F93B8
S1130470AF93BF93EF93FF931092640081E091E0F8
S1130480C5DEFF91EF91BF91AF919F918F917F91C5
S11304906F915F914F913F912F910F900FBE0F90ED
S11304A01F9018951F920F920FB60F9211248F93DD
S11304B0EF93FF93849906C0E2EBF0E080818F5FB5
S11304C0808302C01092B200859906C0E2EBF0E08E
S11304D081818F5F818302C01092B300869906C028
S11304E0E2EBF0E082818F5F828302C01092B4005D
S11304F0879906C0E2EBF0E083818F5F838302C0BB
S11305001092B500FF91EF918F910F900FBE0F9055
S11305101F90189581B18C7F81B980E280B90895CC
S113052094EA96BF06B607FEFDCF83B984E886BF7A
S113053006B607FEFDCF91B1987F983129F081E08E
S1130540903419F480E0089580E0089583B984E834
S113055086BF06B607FEFDCF089584EC86BF06B6B7
S113056007FEFDCF83B1089584E886BF06B607FE73
S1130570FDCF83B1089584E986BF08951F920F9239
S11305800FB60F9211248F939F93EF93FF93909143
S1130590B9008091B800981761F0E091B800EF5F5E
S11305A0EF71E093B800F0E0E654FF4F80818CB91E
S11305B001C05598FF91EF919F918F910F900FBEBD
S11305C00F901F9018951092B9001092B8001092D5
S11305D0B7001092B600992314F422E02BB9907856
S11305E090BD89B988E98AB986E880BD08952091CB
S11305F0B9002F5F2F719091B8002917E1F3E22F12
S1130600F0E0E654FF4F80832093B900559A089593
S1130610CF93DF93EC018881882329F02196E7DFCB
S113062089918111FCCFDF91CF910895A29FB001F0
S1130630B39FC001A39F01D0B29F700D811D1124EF
S1130640911D0895AEE0B0E0E7E2F3E0AAC20D899F
S11306501E8986E08C831A8309838FEF9FE79E832C
S11306608D83AE01475E5F4F6F89788DCE01019611
S113067008D0EF81F885E00FF11F10822E96E4E098
S1130680ACC2ABE0B0E0E6E4F3E07DC26C017B0118
S11306908A01FC0117821682838181FFBFC1CE01CA
S11306A001963C01F6019381F70193FD859193FF37
S11306B081917F01882309F4ADC1853239F493FD1A
S11306C0859193FF81917F01853221F4B60190E0F9
S11306D0C0D1E8CF912C212C312CFFE1F315D8F0B7
S11306E08B3279F038F4803279F08332A1F4232DFF
S11306F020611DC08D3261F0803369F4232D2160A7
S113070016C0832D8260382EE32DE4603E2E2AC06D
S1130710F32DF8601DC037FC2DC020ED280F2A30C2
S113072040F08E32B9F436FC75C1232D2064322E8C
S113073019C036FE06C08AE0989E200D1124922E20
S113074011C0EAE02E9E200D1124222EF32DF0621A
S11307503F2E08C08C3621F4832D8068382E02C0C9
S1130760883641F4F70193FD859193FF81917F01D0
S11307708111B3CF982F9F7D9554933028F40C5F4B
S11307801F4F9FE399830DC0833631F0833771F097
S1130790833509F055C020C0F801808189830E5F3C
S11307A01F4F88248394912C530112C02801F2E036
S11307B04F0E511CF801A080B18036FE03C0692D94
S11307C070E002C06FEF7FEFC50138D14C018201A8
S11307D0F32DFF773F2E15C0280122E0420E511C55
S11307E0F801A080B18036FE03C0692D70E002C01C
S11307F06FEF7FEFC50117D14C01F32DF0683F2E49
S1130800820133FC19C0822D90E088169906A0F469
S1130810B60180E290E01DD12A94F5CFF50137FCB2
S1130820859137FE81915F01B60190E012D12110CC
S11308302A9421E0821A91088114910479F7E1C085
S1130840843611F0893639F5F80137FE07C0608126
S11308507181828193810C5F1F4F08C06081718117
S1130860072E000C880B990B0E5F1F4FF32DFF769C
S11308703F2E97FF09C090958095709561957F4FA5
S11308808F4F9F4FF0683F2E2AE030E0A3011DD127
S1130890882E861844C0853731F4232D2F7EB22E3E
S11308A02AE030E025C0932D997FB92E8F36C1F010
S11308B018F4883579F0AEC0803719F0883721F004
S11308C0A9C0E92FE061BE2EB4FE0DC0FB2DF4607B
S11308D0BF2E09C034FE0AC0292F2660B22E06C0DE
S11308E028E030E005C020E130E002C020E132E041
S11308F0F801B7FE07C060817181828193810C5F2A
S11309001F4F06C06081718180E090E00E5F1F4F31
S1130910A301DBD0882E8618FB2DFF773F2E36FEF1
S11309200DC0232D2E7FA22E891458F434FE0BC043
S113093032FC09C0832D8E7EA82E05C0B82CA32CB2
S113094003C0B82C01C0B92CA4FE0FC0FE01E80DF1
S1130950F11D8081803321F49A2D997EA92E09C03E
S1130960A2FE06C0B394B39404C08A2D867809F01D
S1130970B394A3FC10C0A0FE06C0B21480F4280CEB
S1130980922C9B180DC0B21458F4B60180E290E08A
S113099060D0B394F8CFB21418F42B1802C0982C7A
S11309A0212CA4FE0FC0B60180E390E052D0A2FE39
S11309B016C0A1FC03C088E790E002C088E590E07F
S11309C0B6010CC08A2D867851F0A1FE02C08BE2DC
S11309D001C080E2A7FC8DE2B60190E03AD0891410
S11309E030F4B60180E390E034D09A94F8CF8A943E
S11309F0F301E80DF11D8081B60190E02AD0811049
S1130A00F6CF222009F44ECEB60180E290E021D048
S1130A102A94F7CFF6018681978102C08FEF9FEF6A
S1130A202B96E2E1CCC0FC010590615070400110AE
S1130A30D8F7809590958E0F9F1F0895FC01615003
S1130A40704001900110D8F7809590958E0F9F1FEC
S1130A5008950F931F93CF93DF93FB01238121FD0F
S1130A6003C08FEF9FEF2CC022FF16C04681578131
S1130A70248135814217530744F4A081B1819D013B
S1130A802F5F3F4F318320838C93268137812F5FE3
S1130A903F4F3783268314C08B01EC01FB01008494
S1130AA0F185E02D0995892BE1F6D80116968D91F3
S1130AB09C911797019617969C938E931697CE0147
S1130AC0DF91CF911F910F910895FA01AA27283041
S1130AD051F1203181F1E8946F936E7F6E5F7F4F07
S1130AE08F4F9F4FAF4FB1E03ED0B4E03CD0670F83
S1130AF0781F891F9A1FA11D680F791F8A1F911DD6
S1130B00A11D6A0F711D811D911DA11D20D009F425
S1130B1068943F912AE0269F11243019305D319367
S1130B20DEF6CF010895462F4770405D4193B3E050
S1130B300FD0C9F7F6CF462F4F70405D4A3318F0F7
S1130B40495D31FD4052419302D0A9F7EACFB4E0A8
S1130B50A6959795879577956795BA95C9F7009760
S1130B606105710508959B01AC010A2E0694579501
S1130B70479537952795BA95C9F7620F731F841F58
S1130B80951FA01D08952F923F924F925F926F92EE
S1130B907F928F929F92AF92BF92CF92DF92EF9209
S1130BA0FF920F931F93CF93DF93CDB7DEB7CA1B8A
S1130BB0DB0B0FB6F894DEBF0FBECDBF09942A88B5
S1130BC0398848885F846E847D848C849B84AA845D
S1130BD0B984C884DF80EE80FD800C811B81AA81EA
S1130BE0B981CE0FD11D0FB6F894DEBF0FBECDBFB5
S10B0BF0ED010895F894FFCF14
S1130BF8E4070A08010003020500030501040602CC
S1130C08040D0A73746172740D0A0025642E256438
S1130C182E25642025642025643A25643A25640D2C
S1130C280A004D454E555F4F4B0D0A00444F574E31
S1130C380D0A0055500D0A00455849540D0A000084
S9030000FC
